:020000040000FA
:10000000000200106901000071010000730100008E
:100010007501000077010000790100000000000078
:100020000000000000000000000000007B01000054
:100030007D010000000000007F0100008101000040
:1000400083010000830100008301000083010000A0
:100050008301000083010000830100008301000090
:100060008301000083010000830100008301000080
:100070008301000083010000830100008301000070
:100080008301000083010000830100008301000060
:100090008301000083010000830100008301000050
:1000A0008301000083010000830100008301000040
:1000B0008301000083010000830100008301000030
:1000C00083010000830100008301000000F002F8BA
:1000D00000F03AF80AA090E8000C82448344AAF1A8
:1000E0000107DA4501D100F02FF8AFF2090EBAE8A6
:1000F0000F0013F0010F18BFFB1A43F0010318475C
:10010000DC0300000C040000103A24BF78C878C15A
:10011000FAD8520724BF30C830C144BF04680C600D
:10012000704700000023002400250026103A28BF55
:1001300078C1FBD8520728BF30C148BF0B60704759
:100140001FB51FBD10B510BD00F04EF81146FFF7EA
:10015000F7FF00F0ADF800F06CF803B4FFF7F2FF22
:1001600003BC00F073F800000948804709480047C5
:10017000FEE7FEE7FEE7FEE7FEE7FEE7FEE7FEE757
:10018000FEE7FEE704480549034A054B70470000B7
:1001900001030000CD00000068C00720000200102D
:1001A0000000001010B5431C02E010F8011B71B1F3
:1001B0008107FAD14FF0013202C88C1A8C4314EA3D
:1001C000C211F9D0C01A0A0603D0C01E10BDC01A51
:1001D00010BD0A0401D0801E10BD0902FCD0401ED3
:1001E00010BD704770477047754600F02BF8AE465B
:1001F00005006946534620F00700854618B020B533
:10020000FFF7C0FFBDE820404FF000064FF00007A9
:100210004FF000084FF0000BAC46ACE8C009ACE86A
:10022000C009ACE8C009ACE8C00921F007018D465F
:10023000704710B50446AFF300802046BDE810407B
:10024000FFF78BBF0048704708C0072001491820FE
:10025000ABBEFEE726000200704700004CF2C4006F
:10026000C4F20F00016841F0080101604CF2000087
:10027000C4F20200502101604CF20C00C4F20000F4
:10028000832101704CF20001C4F20001A2220A7025
:100290004CF20401C4F2000100220A700321017033
:1002A0004CF20800C4F20000072101707047000002
:1002B00080B582B000200190FFF7D0FFFFE74CF23D
:1002C0000000C2F20700006800280DD0FFE740F2EE
:1002D000EE20C0F2000000F0D7F84CF20000C2F2AD
:1002E000070000210160EAE7019802B080BD48657F
:1002F0006C6C6F20576F726C64210000FFFFFFFF72
:100300004CF2A010C4F20F002021016000688006AA
:1003100000280CD5FFE7FFE74CF2A010C4F20F0055
:1003200000684006002801D4FFE7F5E7FFE74CF23C
:100330000410C4F20F00032101604CF2A810C4F2B3
:100340000F00002101604CF2AC10C4F20F000160FC
:100350004CF20C10C4F20F00012101604CF2840039
:10036000C4F20F006322C0F2050202604CF28C005E
:10037000C4F20F00AA220260552303604CF2800CE5
:10038000C4F20F0CCCF8001002600360FFE74CF2DF
:100390008800C4F20F0000684001002801D4FFE784
:1003A000F5E74CF28000C4F20F00032101604CF22B
:1003B0008C00C4F20F00AA21016055210160FFE703
:1003C0004CF28800C4F20F00006800F04070B0F1F9
:1003D000407F01D0FFE7F3E74CF2A400C4F20F0026
:1003E000232101604CF2AC00C4F20F00AA2101608D
:1003F000552202604CF2A003C4F20F034FF0010C2F
:10040000C3F800C001600260FFE74CF2A800C4F22C
:100410000F0000684005002801D4FFE7F5E74CF223
:10042000A000C4F20F00032101604CF2AC00C4F242
:100430000F00AA21016055210160FFE74CF2A800DE
:10044000C4F20F00006800F44070B0F5407F01D0A6
:10045000FFE7F3E74CF2C400C4F20F0048F2DE718C
:10046000C0F2284101604CF2C810C4F20F00002114
:1004700001604CF20000C4F20F000168042262F334
:100480000F3101607047000080B584B0039003987D
:10049000FFF788FE0290FFE74CF21400C4F2000060
:1004A00000788006002816D5FFE700200190FFE7BE
:1004B0000198029988420DDCFFE703980199405C9E
:1004C0004CF20001C4F200010870FFE7019801300E
:1004D0000190EDE7E0E704B080BD000010050000EA
:1004E00000C0072008000000080100000C05000003
:1004F00000000010000200002401000018050000A8
:1005000008C0072060000000240100000000000077
:080510000100000000000000E2
:04000005000000CD2A
:00000001FF
